S012000054657374323032315F322E737265631C
S113000071C0000081C000007FC000007DC00000FE
S11300107BC0000079C0000077C0000075C00000FC
S113002073C0000071C000006FC000006DC000000C
S11300306BC0000069C0000067C0000065C000001C
S113004063C0000061C000005FC000005DC000002C
S11300505BC0000059C0000057C0000056C000003B
S113006053C0000051C000004FC000004DC000004C
S11300704BC0000049C0000047C0000045C000005C
S113008043C0000041C000003FC000003DC000006C
S11300903BC0000039C0000037C0000035C000007C
S11300A033C0000031C000002FC000002DC000008C
S11300B02BC0000029C0000027C0000025C000009C
S11300C023C0000021C000001FC000001DC00000AC
S11300D01BC0000019C0000017C0000015C00000BC
S11300E013C0000011241FBECFEFD1E2DEBFCDBF8D
S11300F000E00CBF22E0A0E0B2E001C01D92A230FB
S1130100B207E1F72ED048C07BCF1F920F920FB6F3
S11301100F9211248F9380910102815080930102E8
S113012080910102811108C089E1809301028091CC
S113013000028260809300028F910F900FBE0F9097
S11301401F90189580E884B985B1806885B90895B1
S113015014BC85B385BB81E080936E0085E085BDCA
S11301600895109200028FE080930102EBDFF0DF2C
S113017078948091000281FFFCCF809100028D7FF2
S1130180809300022F9B04C085B18F7785B9F1CF8E
S10F019085B1806885B9EDCFF894FFCFED
S9030000FC
